:100000000C94C9000C94F1000C94F1000C94F100D4
:100010000C94F1000C94F1000C94F1000C94F1009C
:100020000C94F1000C94F1000C945D050C94CC053B
:100030000C94F1000C94F1000C94F1000C94F1007C
:100040000C94F1000C94F1000C94F1000C94F1006C
:100050000C94F1000C94F1000C94F1000C94130535
:100060000C94F1000C94F1000C94F1000C94F1004C
:100070000C94F1000C94F1000C94F1000C94F1003C
:100080000C94F1000C94F1000C94F1000C94F1002C
:100090000C94F1000C94F1000C94F1000C94F1001C
:1000A0000C94F1000C94F1000C94F1004E414E4977
:1000B0004E495459494E46CDCCCC3D0AD7233C1726
:1000C000B7D13877CC2B329595E6241FB14F0A0073
:1000D0000020410000C84200401C4620BCBE4CCA63
:1000E0001B0E5AAEC59D74080B00020202000009E7
:1000F0000400000102020000052400100105240193
:1001000001010424020605240600010705810310ED
:10011000004009040100020A000000070502024035
:1001200000000705830240000004030904120100D7
:1001300002EF0201406D0494C00001010203014C72
:100140006F6769746563680050524F20582053559B
:100150005045524C494748540005010902A1010984
:1001600001A1008501050919012903150025019543
:1001700003750181029501750581030501093009A7
:100180003109381581257F750895038106C0C000A7
:10019000FE0711241FBECFEFDAE0DEBFCDBF22E0A5
:1001A000AEE6B1E001C01D92A932B207E1F711E05D
:1001B000A0E0B1E0E6E5FAE102C005900D92AE36AE
:1001C000B107D9F710E0C9ECD0E004C02197FE01D7
:1001D0000E94180DC83CD107C9F70E9488080C94EA
:1001E000290D0C940000CF93DF93FC018181909145
:1001F0000302482F490F5527551F483051059CF5DC
:10020000A281B381109709F52FEF31E03383228368
:100210002081209301028093020280910402820FC8
:10022000808320910502A22FB09106028A2F821BA3
:100230008917E8F481813D91C82FD0E0C45FDE4F7B
:1002400038838F5F8183F2CFD90118962D913C912D
:10025000199721153105C1F72FEF31E019963C931D
:100260002E931897D5CF80E0DF91CF91089581E04C
:10027000FBCFFC018091AE01882311F13FB7F894C8
:1002800082E08093E9002091F200822F90E018161E
:10029000190614F481E090E0882339F0289844E6A8
:1002A0004093AD014091F1004083222339F0209129
:1002B000F200211103C02BE62093E8003FBF089510
:1002C0008FEF9FEF08953FB7F8948091A901909127
:1002D000AA01A091AB01B091AC0126B5A89B05C0C5
:1002E0002F3F19F00196A11DB11D3FBFBA2FA92FB5
:1002F000982F8827BC01CD01620F711D811D911DB2
:1003000042E0660F771F881F991F4A95D1F708951D
:100310008F929F92AF92BF92CF92DF92EF92FF9215
:100320004B015C010E9463016B017C010E9463012F
:100330006C197D098E099F09683E734081059105FE
:10034000A8F321E0821A9108A108B10888EEC80E2E
:1003500083E0D81EE11CF11C81149104A104B104B6
:1003600029F7FF90EF90DF90CF90BF90AF909F90D4
:100370008F90089540917C0150917D0120917A01E8
:1003800030917B0142175307B4F49091E8009570C7
:10039000E1F39091E80092FD19C08093F100809103
:1003A0007C0190917D0101968F739927892B19F417
:1003B0008EEF8093E80080917C0190917D01019601
:1003C00090937D0180937C0181E0089580E0089501
:1003D000EF92FF920F931F93CF93DF93F82E192F75
:1003E000E62E042F81E0860F880F0E94BA0183E079
:1003F0000E94BA01CF2DD12FEC0EFD2EF11CCE158F
:10040000DF05B9F007FF13C0FE0184910E94BA0115
:10041000182F80E00E94BA01812321968111EFCF2D
:10042000DF91CF911F910F91FF90EF9008958881F8
:10043000EDCF81E0F5CFDF92EF92FF920F931F9304
:10044000CF93DF93D82E8A01EB017B01E40EF51EDA
:10045000CE15DF0559F0D7FE12C0FE0184910E942F
:10046000BA0121968111F4CF0FEF1FEFC801DF9180
:10047000CF911F910F91FF90EF90DF9008958881A9
:10048000EECF2FB7F89487708093E9009091E80041
:10049000892F807295FF04C09091F20080E4891B3F
:1004A0002FBF08957F928F929F92AF92BF92CF926B
:1004B000DF92EF92FF920F931F93CF93DF93C82E9B
:1004C0008B017A018091AE01811110C08FEF9FEFF7
:1004D000DF91CF911F910F91FF90EF90DF90CF9020
:1004E000BF90AF909F908F907F90089580918001F2
:1004F00080FF05C08091E00082608093E000CE2DF7
:10050000DF2DD12C8AEFB82E8C2D8770982E8C2D54
:100510008072882E8C2D8074782E9AE3A92E2097D5
:1005200019F4DD2009F452C08C2D0E944102811182
:100530000AC0BA94BB2051F261E070E080E090E024
:100540000E948801ECCF8C171D0611F00CF08C2F47
:100550009FB7F8949092E9002091E80025FD02C031
:100560009FBFDDCF282F30E0C21BD30B882029F09E
:100570008150A0F01092F100FBCFF801C7FC0AC037
:10058000815050F041914093F100FACF4491409353
:10059000F10031968150D0F7020F131FDD2021F0BA
:1005A000A092E800D12CDCCF8091E80085FD07C047
:1005B000A092E800DD24D394209791F2F3CF209706
:1005C00079F6772069F2A092E800CACF5D9884E6B8
:1005D00080937F01C7017CCF615030F02091F10002
:1005E000FC0120830196F8CF289884E68093AD0122
:1005F00008958091720181110DC082E080936E0197
:1006000084E080936F01109271011092700181E07B
:10061000809372018EE691E008951F93CF93DF934C
:1006200000D000D01F92CDB7DEB7909126029983FB
:100630008A836B831C828091100281112AC011E091
:10064000109303021093040289E092E09093060253
:1006500080930502109208021092070289E291E04D
:10066000909300028093FF0110920B0210920A02F5
:1006700010920D0210920C0210930E0210930F02B2
:1006800081EC809309020E94F9020E94F30010930A
:10069000100281E08D8341E050E0BE016B5F7F4F2F
:1006A000809102020E94520297FD0AC080910202CC
:1006B00044E050E0BE016F5F7F4F80640E945202B1
:1006C0000F900F900F900F900F90DF91CF911F918F
:1006D00008950F931F93CF93DF931F92CDB7DEB78B
:1006E00082E0898342E450E067EE70E080E80E9497
:1006F0001B020E94F902DC0112960D911C9101155A
:10070000110589F0D801ED91FC910280F381E02D73
:10071000BE016F5F7F4FC801099597FD04C0F801C6
:1007200000851185ECCF89810F90DF91CF911F91CA
:100730000F910895CF93DF93EC0180910B018823F3
:1007400031F083E00E9452021816190634F081E05D
:1007500090E09B838A8380E090E0DF91CF910895C1
:10076000CF93DF931F92CDB7DEB76983DC01ED91A4
:10077000FC910280F381E02D41E050E0BE016F5F0B
:100780007F4F09950F90DF91CF91089583E080937B
:10079000E9008091F200882319F08AE38093E80051
:1007A000089583E00E94410290E00895CF93DF9383
:1007B0001F92CDB7DEB7FC018485958597FD08C0F3
:1007C0002FEF3FEF358724870F90DF91CF9108956A
:1007D000CE0101960E943901019719F4898190E0B8
:1007E000F3CF8FEF9FEFF0CF0F931F93CF93DF9354
:1007F0001F92CDB7DEB78C01FC018485958597FFEC
:100800000BC0CE0101960E943901019771F48981D4
:1008100090E0F80195878487F801848595850F908D
:10082000DF91CF911F910F9108958FEF9FEFF1CF3F
:10083000FC018485958597FD0BC09FB7F89482E0F5
:100840008093E9008091F2009FBF90E001960895A7
:100850009FB7F89482E08093E9008091F2009FBFF7
:1008600090E00895DC01FB0112962C91129784818F
:1008700095812817190641F491818081813A31F4DC
:100880009D7F81E0913009F080E008958132E1F7A9
:100890009B3029F482811F968C9381E008959A30D1
:1008A00099F7828150968C93F8CFDC01FB0188E4A4
:1008B000808389E4818384E482831D969C911D97C3
:1008C0009F709F5B93831D968D919C9124E09695DC
:1008D00087952A95E1F78F708F5B848385E0089573
:1008E000EF92FF920F931F93CF93DF93FB01208131
:1008F000213871F52381223259F5DC0112964C9191
:10090000248135814217130619F5EC010B851C85EE
:10091000F12CE12C0115110589F0F8014481558174
:100920006281738180E80E941B028F3F980749F023
:10093000E80EF91ED8010D911C91ECCF81E08F8754
:10094000C701DF91CF911F910F91FF90EF90089514
:1009500090E080E0F6CFCF93DF93CDB7DEB7699715
:100960000FB6F894DEBF0FBECDBFFC01DB018C914A
:100970008F5F8C939E012D5F3F4F8DE0D9011D92BB
:100980008A95E9F729E0298384E08A8391E09D83B1
:1009900083E08E832A8721E22B879C879D879F8710
:1009A00022E2288B27E02B8B25E02C8B8E8B20E4FA
:1009B00030E0388F2F8B998F82818B839585868548
:1009C000998B8A8B838180688D8B49E150E0BE01D1
:1009D0006F5F7F4F80E00E941B0269960FB6F8940C
:1009E000DEBF0FBECDBFDF91CF910895CF93DF93D0
:1009F000FC0101900020E9F73197AF01481B590B2A
:100A0000BC018FEA91E00E949A03EC0142E050E0C1
:100A100061E371E08FEA91E00E949A038C0F9D1FC1
:100A2000DF91CF9108951F920F920FB60F9211246C
:100A30002F933F938F939F93AF93BF938091A50183
:100A40009091A601A091A701B091A8013091A401B5
:100A500023E0230F2D3758F50196A11DB11D2093DA
:100A6000A4018093A5019093A601A093A701B09340
:100A7000A8018091A9019091AA01A091AB01B09128
:100A8000AC010196A11DB11D8093A9019093AA010B
:100A9000A093AB01B093AC01BF91AF919F918F91A7
:100AA0003F912F910F900FBE0F901F90189526E841
:100AB000230F0296A11DB11DD2CF1F920F920FB628
:100AC0000F9211248F939F938091E1009091E10008
:100AD000937F9093E10083FF0FC01092E90091E0B3
:100AE0009093EB001092EC0092E39093ED00109243
:100AF000AE0198E09093F00082FF22C093E09093C3
:100B0000E9009091F200992319F09AE39093E8009C
:100B100090917F01992341F090917F0191509093A2
:100B20007F01911101C05D9A9091AD01992341F02F
:100B30009091AD0191509093AD01911101C0289A0F
:100B400084FF18C08091E2008E7E81608093E20075
:100B50008091E1008F7E8093E100809180018E7E04
:100B60008061809380019F918F910F900FBE0F90B5
:100B70001F90189580FFF7CF8091E2008E7E8061F4
:100B80008093E2008091E1008E7E8093E10080916D
:100B900080018E7E8160E5CF1F920F920FB60F927B
:100BA0001124CF92DF92EF92FF920F931F932F9316
:100BB0003F934F935F936F937F938F939F93AF93E5
:100BC000BF93EF93FF93CF93DF93CDB7DEB76C97CF
:100BD000DEBFCDBF1092E9008091E80083FF25C001
:100BE00068E0CE0145960E94EC0282EF8093E80017
:100BF0008D8987FF39C09091E80090FFFCCF982F36
:100C0000907609F034C19E894F89588D2F89F88CD0
:100C1000911131C0803861F5809181018093F1009C
:100C20001092F1008EEF8093E8006C960FB6F89466
:100C3000DEBF0FBECDBFDF91CF91FF91EF91BF918E
:100C4000AF919F918F917F916F915F914F913F9164
:100C50002F911F910F91FF90EF90DF90CF900F9009
:100C60000FBE0F901F9018959EEF9093E800C7CF8E
:100C70001092F100D5CF913059F48111D3CF41308A
:100C8000510581F6809181018D7F80938101CACFCA
:100C9000933049F48111C6CF4130510519F6809146
:100CA00081018260F2CF953041F48091E80080FFAD
:100CB000FCCF20682093E300B5CF963009F0A9C09F
:100CC0000B8D1C8D22E01092E90010927D01109294
:100CD0007C01F2122EC010927B0110927A010E94C8
:100CE00069031F8299E09983FA8291E09E8390EADA
:100CF00098879AEF998720917C0130917D01275F39
:100D00003F4F3C832B838D831092E90010927D012D
:100D100010927C0110937B0100937A0149E050E02E
:100D2000BE016F5F7F4F80E00E941B020E9469033B
:100D300079CF10937B0100937A010E94F902DC01C4
:100D400012960D911C910115110509F451C1D8019C
:100D5000ED91FC910480F581E02DBE016B5E7F4F2B
:100D6000C8010995009709F03EC1F8010085118579
:100D7000EACFF3E0FF120EC08F89882309F440C048
:100D8000823061F440E860E188E491E00E94E8018B
:100D9000811148CF81E28093EB0047CF813029F465
:100DA00040E868E08FE391E0F1CF833099F70E944B
:100DB000F902DC011296ED90FC908E010F5F1F4F3F
:100DC0006801E114F10479F0D701ED91FC910680FE
:100DD000F781E02DB801C7010995080F111DF70132
:100DE000E084F184EECFD8011C92F601019000203E
:100DF000E9F73197BF016C197D0940E0C601C6CF04
:100E000069E271E0FB01449150E080E80E941B021E
:100E100009CF973009F4BECF983021F481E0809358
:100E2000F10000CF993009F0FDCE837009F0B2CF08
:100E3000EDE0F1E081E031E096E32191222371F0D1
:100E40008093E9003093EB00DF0111972C91209300
:100E5000EC009093ED008F5F873079F78EE78093F9
:100E6000EA001092EA008F898093AE01DBCE8B8D71
:100E70009C8D1092E90010927D0110927C0190935C
:100E80007B0180937A01898D811192C08E899D8921
:100E9000913A49F4813209F07DCF47E050E064E0B7
:100EA00071E080E0B3CF913209F074CF833269F4FE
:100EB0008F89988DB0E0A0E08093000190930101AC
:100EC000A0930201B0930301ADCE803269F480910A
:100ED000E80082FFFCCF67E084E091E00E94EC0232
:100EE0008BEF8093E8009ECE823209F09BCE8F89F3
:100EF00080930B01EEEFFFE7859194918B3F9C4D22
:100F000051F1E0E0F8E08091040190910501A09199
:100F10000601B0910701803B9440A105B105F1F4B1
:100F200080910B0180FD1AC0EE3F8AE0F80789F539
:100F300087E797E7918380838091600080937E01AB
:100F400088E19BE00FB6F894A895809360000FBEEF
:100F50009093600067CEEEEFFAE0D5CF808191816B
:100F60008737974709F05ECEA89580916000886129
:100F70008093600080917E0180936000EE3F2AE0C4
:100F8000F20789F08091FE0A9091FF0A9183808395
:100F900049CE808191818737980751F29093FF0A5B
:100FA0008093FE0AC5CF1092FF0A1092FE0A3ACE35
:100FB0000E94F902DC0112960D911C910115110598
:100FC00009F4E8CED801ED91FC910190F081E02D7B
:100FD000BE016B5E7F4FC8010995811123CEF801D8
:100FE00000851185EBCF181619060CF41BCED2CE56
:100FF000F1E0FF12BECE6DE271E004CFCF9310920C
:10100000B2011092B10188EE93E0A0E0B0E08093CD
:10101000B3019093B401A093B501B093B60187E1F9
:1010200091E09093B0018093AF018FEF9FEF909389
:10103000BC018093BB011092260280911E02811197
:1010400013C0109219021092180289E591E0909352
:101050001B0280931A0286E390E090931D02809316
:101060001C0281E080931E028091100281112AC02F
:10107000C1E0C0930302C093040289E092E0909320
:10108000060280930502109208021092070289E27C
:1010900091E0909300028093FF0110920B02109256
:1010A0000A0210920D0210920C02C0930E02C0931D
:1010B0000F0281EC809309020E94F9020E94F30062
:1010C000C0931002E0910A02F0910B023097B9F43C
:1010D00088E192E090930B0280930A0280910C02C7
:1010E00090910D0220911C0230911D02820F931FDE
:1010F00090930D0280930C02CF910895FC018081A2
:1011000091810097D9F788E192E091838083E6CFBF
:10111000789484B5826084BD84B5816084BD85B5D2
:10112000826085BD85B5816085BD80916E008160DE
:1011300080936E0010928100809181008260809384
:101140008100809181008160809381008091800086
:1011500081608093800080919100826080939100F3
:1011600080919100816080939100809190008160D6
:10117000809390008091C10084608093C100809131
:10118000C10082608093C1008091C1008160809322
:10119000C1008091C30081608093C3008091C00032
:1011A00082608093C0008091C20081608093C20001
:1011B00080917A00846080937A0080917A008260C6
:1011C00080937A0080917A00816080937A00809188
:1011D0007A00806880937A001092AE0110928101AB
:1011E000109280018091D70081608093D70080EABF
:1011F0008093D80089B5806189BD89B5826089BD39
:1012000009B400FEFDCF61E070E080E090E00E9454
:1012100088018091D8008F7C80618093D800809174
:10122000E000807F8093E0008091E1008E7E8093DB
:10123000E1008DE08093E200559A209A8FEF9FEFB6
:101240009093BC018093BB0164E670E080E090E085
:101250000E94880164E670E080E090E00E948801CE
:1012600000E010E08FEA91E00E94180418161906B9
:101270000CF0B4C08FEA91E00E94D6032091A20145
:101280003091A3018A3019F08D3009F097C0F9012F
:10129000EE57FE4F1082121613060CF060C08091BC
:1012A0008201863509F466C0C4F48D3401F14CF432
:1012B0008F3309F462C0833409F464C082E691E09C
:1012C0005EC0833509F477C08435C1F760E08AE0F9
:1012D0000E940D038FE491E052C0833709F46BC084
:1012E0000CF042C0833609F44DC08D3639F784E8DE
:1012F00091E00E94F5094B015C016CE270E084E82A
:1013000091E00E941E0DC12CD12C7601009729F08E
:1013100001960E94F5096B017C01C501B4010E9490
:10132000E20CEB01C1388FEFD80714F4C1E8DFEF0E
:10133000C701B6010E94E20C6138EFEF7E0714F49A
:1013400061E87FEF6038710514F06FE770E0CE015F
:10135000C038D10514F08FE790E00E940D03109281
:10136000A3011092A2017ECF843709F4AFCF863754
:1013700009F0A4CF80E491E002C084E391E00E94F0
:10138000F604EDCF80918401882399F08F7D82351A
:1013900071F08D3471F484E08093260260E080E087
:1013A0000E940D031092260260E080E0D6CF82E01A
:1013B000F3CF81E0F1CF88E591E0E1CF2F31310526
:1013C0000CF050CFA9014F5F5F4F5093A3014093A2
:1013D000A2012E573E4FF901808344CF011511051C
:1013E00009F440CF0E9400003DCF662777270C9478
:1013F000F909B0E0A0E0EFEFF9E00C94A20C5C0179
:101400007B016115710519F0DB018D939C938501BA
:101410000F5F1F4FF501D0818D2F90E00E94490B87
:101420006C01892BB9F5DD32B9F50F5F1F4FD5017E
:101430001196DC91C1E05801F1E0AF1AB10843E028
:1014400050E064EB70E0C5010E94520B892B69F5F6
:10145000680182E0C80ED11C45E050E06FEA70E000
:10146000C6010E94520B892B21F4680197E0C90E36
:10147000D11CE114F10419F0D701CD92DC9260E0A7
:1014800070E080E89FEFC111FFC060E070E080E88D
:101490009FE7FAC05801BBCFDB3229F485010E5F0C
:1014A0001F4FF501D181C0E0C6CF43E050E06CEAA8
:1014B00070E0C5010E94520B892BE9F0F80110E0A1
:1014C00000E020E030E0A9015F01B0ED8B2E8D0E31
:1014D00089E08815C8F19C2E689491F88C2F88704B
:1014E000C2FF16C0811102C00F5F1F4F3196D50198
:1014F000DC91C92DE9CFE114F10429F00E5F1F4FF3
:10150000F7011183008360E070E080EC9FE7BCC0CE
:10151000882311F001501109A5E0B0E00E94910C60
:101520009B01AC01220F331F441F551F280D311D95
:10153000411D511D283999E93907490799E1590792
:10154000A8F2C6609C2ED2CFAEEF8A1206C0C3FDB1
:101550003CC09C2E689493F8C9CFDF7DD534A9F5A3
:1015600080818D3239F4C061DF011296818162E0A1
:1015700070E006C0DF018B32C1F3119661E070E0CC
:1015800080535D01A61AB70A8A30F8F4E0E8CE1657
:10159000ECE0DE065CF4B601660F771F660F771F7E
:1015A000C60ED71ECC0CDD1CC80ED11C5D01FFEF92
:1015B000AF1ABF0A8C9180538A30A8F1C4FF03C0D0
:1015C000D194C194D1080C0D1D1DC1FF09C0E114B7
:1015D000F10431F081E0A81AB108D701AD92BC92B4
:1015E000CA01B9010E946F0BC370C33009F490584F
:1015F0004B015C0120E030E0A9010E946A0B8823C6
:1016000009F440C0C3EED0E017FF05C01195019565
:101610001109CBECD0E06E01B8E1CB1AD10880E221
:10162000E82EF12C0FC0D501B1CFFE0125913591E7
:10163000459154910E191F09C501B4010E94D00BA8
:101640004B015C01D501C4010E151F0574F72497E9
:10165000F594E794CC16DD06A9F78A2F880F8B2F17
:10166000881F8F3F49F020E030E0A901C501B40197
:101670000E946A0B811106C082E290E090932802DA
:1016800080932702C501B401CDB7DEB7ECE00C941E
:10169000BE0C91110C943D0C803219F0895085508C
:1016A000C8F70895FB01DC014150504088F08D914E
:1016B00081341CF08B350CF4805E659161341CF034
:1016C0006B350CF4605E861B611171F3990B089504
:1016D000881BFCCF0E94AC0B08F481E00895E894CD
:1016E00009C097FB3EF490958095709561957F4F6A
:1016F0008F4F9F4F9923A9F0F92F96E9BB27939518
:10170000F695879577956795B795F111F8CFFAF427
:10171000BB0F11F460FF1BC06F5F7F4F8F4F9F4F58
:1017200016C0882311F096E911C0772321F09EE8B6
:10173000872F762F05C0662371F096E8862F70E01C
:1017400060E02AF09A95660F771F881FDAF7880FF6
:101750009695879597F90895990F0008550FAA0B4C
:10176000E0E8FEEF16161706E807F907C0F01216B4
:101770001306E407F50798F0621B730B840B950BB7
:1017800039F40A2661F0232B242B252B21F408950C
:101790000A2609F4A140A6958FEF811D811D0895A9
:1017A0000E94E30B0C94570C0E94490C38F00E94E5
:1017B000500C20F0952311F00C94400C0C94460C26
:1017C00011240C948B0C0E94680C70F3959FC1F34C
:1017D000950F50E0551F629FF001729FBB27F00DDF
:1017E000B11D639FAA27F00DB11DAA1F649F662734
:1017F000B00DA11D661F829F2227B00DA11D621F83
:10180000739FB00DA11D621F839FA00D611D221F3C
:10181000749F3327A00D611D231F849F600D211D20
:10182000822F762F6A2F11249F5750409AF0F1F0A3
:1018300088234AF0EE0FFF1FBB1F661F771F881F0C
:1018400091505040A9F79E3F510580F00C94400CF8
:101850000C948B0C5F3FE4F3983ED4F38695779518
:101860006795B795F795E7959F5FC1F7FE2B880FB2
:10187000911D9695879597F908959927882708953A
:1018800097F99F6780E870E060E008959FEF80EC33
:10189000089500240A9416161706180609060895D6
:1018A00000240A9412161306140605060895092E3C
:1018B0000394000C11F4882352F0BB0F40F4BF2BAB
:1018C00011F460FF04C06F5F7F4F8F4F9F4F0895EB
:1018D00057FD9058440F551F59F05F3F71F04795E1
:1018E000880F97FB991F61F09F3F79F087950895C6
:1018F000121613061406551FF2CF4695F1DF08C0E5
:10190000161617061806991FF1CF86957105610501
:1019100008940895E894BB2766277727CB0197F9A9
:1019200008950E94D30CA59F900DB49F900DA49F85
:10193000800D911D112408952F923F924F925F9236
:101940006F927F928F929F92AF92BF92CF92DF92CF
:10195000EF92FF920F931F93CF93DF93CDB7DEB734
:10196000CA1BDB0B0FB6F894DEBF0FBECDBF0994C8
:101970002A88398848885F846E847D848C849B841F
:10198000AA84B984C884DF80EE80FD800C811B812D
:10199000AA81B981CE0FD11D0FB6F894DEBF0FBE5C
:1019A000CDBFED010895A29FB001B39FC001A39FD9
:1019B000700D811D1124911DB29F700D811D112488
:1019C000911D08950E94E90C6894B1110C948B0C40
:1019D00008950E94700C88F09F5798F0B92F9927AE
:1019E000B751B0F0E1F0660F771F881F991F1AF00A
:1019F000BA95C9F714C0B13091F00E948A0CB1E0D9
:101A000008950C948A0C672F782F8827B85F39F0D7
:101A1000B93FCCF3869577956795B395D9F73EF4A2
:101A200090958095709561957F4F8F4F9F4F08954A
:101A3000EE0FFF1F0590F491E02D0994FC018191B8
:101A4000861721F08823D9F7992708953197CF0178
:061A50000895F894FFCF99
:101A5600FFFFFFFF00E100000000000000C18081E1
:101A660000000000000000B0039A03D103C603186B
:101A760004D603F403000000003204AB04700455DE
:101A8600040D0A004F4B3A535441524C494E4B00F9
:101A96005645523A322E302E302D54455354004F6F
:101AA6004B3A4D4F564544005354415455533A4FC3
:0E1AB6004B004552523A554E4B4E4F574E0084
:00000001FF
